:020000040800F2
:1000000060070020DD0100087D16000829130008A4
:1000100079160008C5080008CF1C00080000000081
:10002000000000000000000000000000551800085B
:100030003D0F0008000000000517000869190008BE
:10004000F7010008F7010008F7010008F7010008B0
:10005000F7010008F7010008F7010008F7010008A0
:10006000F7010008C90F000815100008F701000883
:10007000F7010008F7010008F7010008F701000880
:10008000F7010008F7010008F7010008F701000870
:10009000F7010008F7010008F7010008F701000860
:1000A000F7010008F7010008F7010008F701000850
:1000B000F7010008F7010008F7010008F701000840
:1000C000F7010008F7010008F7010008F701000830
:1000D000F7010008AD1A0008F7010008F701000851
:1000E000F7010008F7010008F7010008F701000810
:1000F000F7010008F7010008F7010008F701000800
:10010000F7010008F7010008F7010008F7010008EF
:10011000F7010008F7010008F7010008F7010008DF
:10012000F7010008F7010008F7010008F7010008CF
:1001300000F002F800F042F80AA090E8000C8244B7
:100140008344AAF10107DA4501D100F037F8AFF294
:10015000090EBAE80F0013F0010F18BFFB1A43F0A5
:100160000103184794270000B4270000103A24BF69
:1001700078C878C1FAD8520724BF30C830C144BF0C
:1001800004680C607047000000230024002500264E
:10019000103A28BF78C1FBD8520728BF30C148BFEA
:1001A0000B607047642900F0A580732900F04D8131
:1001B000002070471FB51FBD10B510BD00F078F9C5
:1001C0001146FFF7F7FF01F003FE00F096F903B4C4
:1001D000FFF7F2FF03BC01F07CFD000009488047F7
:1001E00009480047FEE7FEE7FEE7FEE7FEE7FEE719
:1001F000FEE7FEE7FEE7FEE704480549054A064B31
:10020000704700006D1900083101000860010020EE
:10021000600700206003002060030020704700009A
:100220000FB4044910B503AA029800F013F910BCEA
:100230005DF814FB300000202DE9F0410E46044625
:10024000002020622046E168884730B3252805D089
:10025000D4E901219047206A401CF2E7E16820467A
:1002600000278847050018D0A5F14100192802D8B9
:1002700020354FF400673246294620462760FFF7B5
:1002800091FF40B1012804D0F61D26F0070608367C
:10029000D8E7361DD6E72846DAE7206ABDE8F081C0
:1002A00070B50C460546012A05D02878800600D591
:1002B000EA69002302E0012305E05B1C934202D2BD
:1002C000E05C0028F9D1A869E618C01AA861286A7C
:1002D000184428622846AFF3008004E0D5E90121E4
:1002E00014F8010B9047B442F8D32846AFF30080CE
:1002F00070BD00002DE9F041064600241068752904
:10030000314616A510D0AFF30080002802DA404233
:1003100013A507E031688A0701D512A502E0490755
:1003200004D511A5012401E0AFF3008000210A22C9
:1003300006F1240709E0B0FBF2FCB0FBF2F302FB8C
:100340001C00303078541846491C0028F3D123464D
:100350002A463046BDE8F04100F00CB8000000002D
:100360002D0000002B0000002000000070477047A7
:10037000704770472DE9F0470D469946924604466E
:1003800000F124080168880604D5E06921F0100115
:10039000216000E00120A84201DD471B00E00027AA
:1003A000A1697A1902EB0900081AA0612078C00639
:1003B00002D42046AFF30080002608E0D4E90121F2
:1003C0001AF806009047206A401C761C20624E45B1
:1003D000F4DB2078C0060AD52046AFF3008006E0A3
:1003E000D4E9012130209047206A401C2062381E49
:1003F000A7F10107F4DC07E0D4E9012118F80500B2
:100400009047206A401C2062281EA5F10105F3DCFC
:100410002046AFF300802078000602D50220BDE818
:10042000F0870120FBE710B5436913B1AFF30080FB
:1004300001E0FFF735FF012010BD127800F1240123
:100440000A7000224A700122EDE711684FF0FF3276
:10045000E9E70000074B70B50D467B4400F011F84A
:100460000446284600F020F810B14FF0FF3070BD70
:10047000204670BD5719000001694A1C02610878C6
:10048000704700B58FB0CDE90131002105910549D4
:100490007944CDE9031011466846FFF7CDFE0FB051
:1004A00000BD0000E5FFFFFF007B00F0800070470B
:1004B000754600F02BF8AE4605006946534620F01D
:1004C0000700854618B020B5FFF796FEBDE820402E
:1004D0004FF000064FF000074FF000084FF0000B00
:1004E00021F00701AC46ACE8C009ACE8C009ACE8B3
:1004F000C009ACE8C0098D46704710B50446AFF39B
:1005000000802046BDE81040FFF761BE00487047FC
:100510000001002021B1826842F00102826003E004
:10052000826822F0010282607047000010B5044624
:100530001248844208D10121401501F011F900212F
:10054000601501F00DF917E00D48844208D1012132
:10055000001501F005F90021201501F001F90BE06B
:100560000848844208D10121C80301F0F9F80021AC
:100570004FF4004001F0F4F810BD000000240140E9
:1005800000280140003C0140014600208A6802F03A
:1005900004020AB1012000E0002070470146C86C47
:1005A00080B270470246002013680B400BB1012057
:1005B00000E000207047014600208A6802F008022F
:1005C0000AB1012000E000207047000030B502466B
:1005D0000020002350680F4C20400D790C6844EA3D
:1005E00005242043506090680B4C2040D1E9025410
:1005F0002C434D7944EA450420439060D06A20F4AE
:1006000070000C7C641EE4B2234340EA0350D062C5
:1006100030BD0000FFFEF0FFFDF7F1FFF0B504462E
:100620000D4600200021092D11DDE068A5F10A0624
:1006300006EB4607072606FA07F18843A5F10A06E6
:1006400006EB460603FA06F10843E0600CE0206979
:1006500005EB4507072606FA07F1884305EB450633
:1006600003FA06F108432061072A0FDA606B561E71
:1006700006EB86071F2606FA07F18843561E06EB8F
:10068000860605FA06F10843606322E00D2A0FDAB8
:10069000206BD61F06EB86071F2606FA07F1884354
:1006A000D61F06EB860605FA06F10843206310E024
:1006B000E06AA2F10D0606EB86071F2606FA07F18F
:1006C0008843A2F10D0606EB860605FA06F10843FB
:1006D000E062F0BD816841F008018160704721B19E
:1006E000826842F4A002826003E0826822F4A002E1
:1006F00082607047816841F00401816070470000AA
:1007000030B10749096841F40001054A116005E06C
:100710000349096821F40001014A11607047000093
:100720000824014010B5FF2000F028F80446552C9D
:1007300001D1002010BD5521FF2000F05DF8FF2001
:1007400000F01CF80446552C01D10020F2E70120EE
:10075000F0E710B500F012FE10BD70B506460C466D
:10076000154608E03046721C96B200F007F804F80F
:10077000010B681E85B2002DF4D170BD70B5044622
:10078000002600F0A9FE2546E11704EB11610912CD
:10079000A02202EB4101C8B200F06AFE00F0E8FEC0
:1007A000E11704EB11610912A4EB0121C8B200F0BA
:1007B0005FFE00F0DDFE00F08FFEA12000F058FE8D
:1007C00000F0D6FE002000F01BFE064600F0AAFE58
:1007D000304670BD70B505460C46164606E02178D9
:1007E000284600F009F8681C85B2641C301EA6F18A
:1007F00001018EB2F3D170BD70B504460E4600F013
:100800006BFE2546E11704EB11610912A02202EBF1
:100810004101C8B200F02CFE00F0AAFEE11704EB83
:1008200011610912A4EB0121C8B200F021FE00F011
:100830009FFE304600F01CFE00F09AFE00F072FEB3
:100840000A2001F06BFA70BD00B585B00121C80324
:1008500000F076FF0121C80300F082FF00214FF471
:10086000004000F07DFF1648FFF760FE002000907A
:100870008DF804008DF805004FF4602002900020F0
:10088000039001208DF8100069460D48FFF79EFE89
:1008900001210B48FFF73EFE0948FFF71BFF00BF91
:1008A0000748FFF788FE0028FAD10548FFF722FF26
:1008B00000BF0348FFF768FE0028FAD105B000BD6D
:1008C000003C014000BFFEE710B50021837A012201
:1008D00002FA03F13D4A126842F001023B4B1A60F2
:1008E0003A4A1C3212688A43384B1C331A60027B26
:1008F000CAB9364A0C3212688A43344B0C331A6038
:100900004288C38842EA0343304A4032847A42F83C
:1009100034300288838842EA03432C4A4032847A86
:1009200002EBC4025360027B012A19D1274A0C3220
:1009300012680A43254B0C331A604288038842EA46
:100940000343224A4032847A42F83430C288838892
:1009500042EA03431D4A4032847A02EBC4025360E8
:10096000C27A3AB9194A121D12688A43174B1B1DE5
:100970001A6006E0154A121D12680A43134B1B1D2C
:100980001A60028932B9114A143212688A430F4B35
:1009900014331A600289012A06D10C4A14321268F3
:1009A0000A430A4B14331A60427B012A06D1074AD4
:1009B0001C3212680A43054B1C331A60034A126842
:1009C00022F00102014B1A6010BD000000660040D9
:1009D00030B5024600200023146824F0020414609D
:1009E000146844F00104146000E05B1C546804F0D7
:1009F00001041CB94FF6FF74A342F6D1546804F009
:100A000001040CB900206CE08C79012C04D114682D
:100A100044F08004146003E0146824F0800414603F
:100A2000CC79012C04D1146844F04004146003E034
:100A3000146824F0400414600C7A012C04D114686A
:100A400044F02004146003E0146824F020041460CF
:100A50004C7A012C04D1146844F01004146003E0B3
:100A6000146824F0100414608C7A012C04D11468EA
:100A700044F00804146003E0146824F008041460CF
:100A8000CC7A012C04D1146844F00404146003E00F
:100A9000146824F0040414608C78A407CD7844EA28
:100AA00005640D7944EA05444D7944EA05540D88FE
:100AB0006D1E2C43D461146824F0010414600023DB
:100AC00000E05B1C546804F001041CB14FF6FF7495
:100AD000A342F6D1546804F001040CB1002000E0F8
:100AE000012030BD0246002019B9D36803F003008D
:100AF00006E0012903D1136903F0030000E00020A0
:100B0000704700002DE9F04188B004460D461646B6
:100B10001F46DDF838800121480600F001FE012162
:100B2000042000F00DFE18208DF81F004FF48050B7
:100B3000ADF81C0003208DF81E0007A9254800F021
:100B4000FFFA48208DF81F004FF40060ADF81C003C
:100B500003208DF81E0007A91E4800F0F1FA0020BE
:100B60008DF816008DF817008DF8180001208DF80B
:100B7000190000208DF81A008DF81B008DF81280E6
:100B80008DF813408DF814608DF81550ADF8107085
:100B900004A91148FFF71CFF00208DF80A008DF80A
:100BA0000B0001208DF80C000020ADF80000ADF81E
:100BB0000200ADF80400ADF80600ADF80800012011
:100BC0008DF80D006846FFF77FFE002008B0BDE8F5
:100BD000F0810000000801400064004010B500F5FD
:100BE000D87303EB01131B6803F004031372137A29
:100BF00053B900F5D87303EB01131B6840F2FF747F
:100C000004EA5353136009E000F5D87303EB0113B2
:100C10001B686FF0604404EAD303536000F5D87397
:100C200003EB01131B6803F00203537200F5D87342
:100C300003EB01135B6803F00F03937200F5D873A5
:100C400003EB01135B681B0AD37400F5D87303EB45
:100C500001139B68D37200F5D87303EB01139B68F3
:100C60001C0A147300F5D87303EB01139B681C0C6A
:100C7000547300F5D87303EB01139B681B0E937339
:100C800000F5D87303EB0113DB68D37300F5D87359
:100C900003EB0113DB681C0A147400F5D87303EB33
:100CA0000113DB681C0C547400F5D87303EB0113BB
:100CB000DB681B0E937421B9C36843F02003C36043
:100CC00003E0036943F02003036110BD10B5024641
:100CD0000020936803F08063B3F1806F00D110E0CF
:100CE000936803F00063B3F1006F01D1012008E0C5
:100CF000936803F08053B3F1805F01D1022000E0DC
:100D00000420042874D002F5C07303EB00131B68A1
:100D100003F0010402F5C07303EB00131C600B7AAF
:100D20007BB94B7A0C8843EA445302F5C07404EB58
:100D300000142468234302F5C07404EB00142360FC
:100D400010E00B7A4C6843EAC4034C7A234302F563
:100D5000C07404EB00142468234302F5C07404EB50
:100D6000001423608B7A03F00F038B7202F5C073BB
:100D700003EB00135B6823F00F0402F5C07303EB71
:100D800000135C6002F5C07303EB00135B688C7AA0
:100D9000234302F5C07404EB001463608B7B1C06D4
:100DA0004B7B44EA03440B7B44EA0323CC7A234382
:100DB00002F5C07404EB0014A3608B7C1C064B7C12
:100DC00044EA03440B7C44EA0323CC7B234302F52F
:100DD000C07404EB0014E36002F5C07303EB00136E
:100DE0001B6843F0010402F5C07303EB00131C60A1
:100DF00010BD000010B50246002321B1012907D023
:100E000002290FD109E090681D4C00EA04030BE0B1
:100E100090681C4C00EA040306E090681A4C00EA53
:100E2000040301E0002300BF00BF184C181BA342BD
:100E300016D007DC83B16FF08060184470B10228CF
:100E400018D111E0B0F5007F10D0114C204448B10A
:100E5000B0F5003F0ED10BE002230DE000230BE0C4
:100E6000002309E0002307E0012305E0012303E05C
:100E7000012301E0002300BF00BFD8B210BD000075
:100E80000300000400030008000003100001000834
:100E90000001FFF730B585B0054600210B48FFF78C
:100EA00021FE10B9002005B030BD6A460021074878
:100EB000FFF794FE002404E00DF10B00005D2855BF
:100EC000641C082CF8D39DF80A00ECE7006400408D
:100ED000F0B585B007460D46002412200090019021
:100EE00000208DF808008DF809008DF80A5000BF29
:100EF00005E0395D0DF10B000155601C84B2AC4278
:100F0000F7DB69460C48FFF7E1FE0646002401E0E6
:100F1000601C84B231460848FFF76CFF18B940F6F0
:100F2000FF708442F4DB40F6FF70844202DB012054
:100F300005B0F0BD0020FBE70064004070470EB52F
:100F40000121084600F0FCFB0421084600F0D8F817
:100F50000321042000F0D4F81020019001208DF826
:100F60000A0000208DF808000C208DF8090001A867
:100F700000F07CF80820019001208DF80A00002084
:100F80008DF808000C208DF8090001A800F06EF81B
:100F90000A208DF8000001208DF8030002208DF852
:100FA00001008DF80200684600F06AFB09208DF808
:100FB000000001208DF803008DF801008DF802007B
:100FC000684600F05DFB0EBD10B50A2000F0A6FEDD
:100FD00008210C4800F03FF980B90B48006808B9B7
:100FE000012000E00020084908600848D0F894017A
:100FF00008B9012000E0002005490860082000F041
:101000002FF810BD001801409481214200002342B6
:101010009401234210B50A2000F080FE10210C48F4
:1010200000F019F980B90B48006808B9012000E008
:101030000020084908600848D0F8940108B9012048
:1010400000E0002005490860102000F009F810BDFC
:101050000018014094812142000023429401234260
:101060000149086070470000140401400021234931
:101070008279002A3AD00A46126803689A430B46DE
:101080001A600A1D126803689A430B1D1A600279E0
:1010900011440A6803681A430A60184A0832126841
:1010A00003689A43154B08331A601A1D12680368C7
:1010B0009A43124B0C331A604279102A0ED11A1F30
:1010C000126803681A430D4B08331A601A1D126820
:1010D00003681A43094B0C331A600DE00749427943
:1010E00011440A6803681A430A6005E00279114452
:1010F0000A6803689A430A607047000000040140D0
:1011000030B500228B071C0F0F2303FA04F20B4BA0
:101110008C1053F824309343084C8D1044F825303C
:1011200023468C1053F824308C07240F00FA04F463
:101130002343024C8D1044F8253030BD0800014097
:101140002DE9F0410246002500260020002300245E
:10115000002791F803C00CF00F0591F803C00CF0C4
:10116000100CBCF1000F03D091F802C04CEA050549
:1011700091F800C0BCF1000F31D0146800202BE0C2
:101180004FF0010C0CFA00F3B1F800C00CEA0306B2
:101190009E4220D183004FF00F0C0CFA03F7BC43A2
:1011A00005FA03FC4CEA040491F803C0BCF1280FD3
:1011B00006D14FF0010C0CFA00FCC2F814C00AE092
:1011C00091F803C0BCF1480F05D14FF0010C0CFAA7
:1011D00000FCC2F810C0401C0828D1D31460B1F83C
:1011E00000C0BCF1FF0F34DD546800202EE000F198
:1011F000080C4FF0010808FA0CF3B1F800C00CEA33
:1012000003069E4221D183004FF00F0C0CFA03F726
:10121000BC4305FA03FC4CEA040491F803C0BCF19A
:10122000280F05D100F1080C08FA0CF8C2F8148058
:1012300091F803C0BCF1480F07D100F1080C4FF042
:10124000010808FA0CF8C2F81080401C0828CED318
:101250005460BDE8F0810246002093680B400BB15A
:10126000012000E0002070470161704710B504467E
:101270000723012221460948FFF7D0F90121074839
:10128000FFF72DFA00BF02210448FFF78BF9002871
:10129000F9D00248FFF782F910BD0000003C014080
:1012A0002DE9F05F1421102000F0E8FB834658463A
:1012B00001F0ACFA804601F07DFA06464FF0663246
:1012C000124B01F08FF804460D4622462B4610487B
:1012D000104901F085F980460F4A104B00F0FAFEE4
:1012E000064600220E4B00F04DFE04460D4600223D
:1012F0000C4B2046294601F075F8064601F042F8ED
:101300000FFA80FA5046BDE8F09F000066664A3F3B
:10131000E17A14AE47E1F63F22FDF675E09C713F9D
:10132000000039400000594000BFFEE710B5002022
:101330000F4908600F48006820F070400D490860B0
:101340000846006840F04050086000200A49C1F893
:101350009C01022000F008FD0120054908600220E0
:1013600000F002FD00200449C1F8980110BD000002
:1013700098812142000C01400080214208B50121E2
:10138000082000F0DDF9C020ADF8000010208DF835
:10139000030003208DF8020069460448FFF7D0FEE1
:1013A000C0210248FFF760FF08BD0000000C0140AB
:1013B00010B500200F4908600F48006820F0704009
:1013C0000D4908600846006840F040500860012060
:1013D0000A49C1F89C01022000F0C6FC0120054921
:1013E0000860022000F0C0FC00200449C1F8980108
:1013F00010BD000098812142000C01400080214274
:1014000070B5054600241748006820F07040154963
:1014100008600846006840F000400860002616E0BA
:10142000002011490860022000F09EFC01200F49B5
:10143000C1F898016006040E0B487C38006808B1BA
:10144000601CC4B2012000F08FFC701CC6B2082ED4
:10145000E6DB15B9FFF7ACFF01E0FFF767FF2046B9
:1014600070BD0000000C01409881214200802142A3
:1014700070B504461548006820F0704013490860B4
:101480000846006840F0405008600020104908609D
:10149000002517E0E0090E49091D08606006040EEA
:1014A000022000F061FC01200A49C1F898010220E5
:1014B00000F05AFC002006490860022000F054FCAD
:1014C000681CC5B2082DE5DB70BD0000000C0140B2
:1014D000988121420080214210B50F48006820F019
:1014E00070400D4908600846006840F040500860B0
:1014F00001200A4908600A49C1F89801042000F057
:1015000033FC002005490860042000F02DFC002079
:101510000349C1F8980110BD000C01409C81214293
:101520000080214210B50F48006820F070400D493E
:1015300008600846006840F04050086000200A49F2
:1015400008600A49C1F89C01042000F00DFC01204C
:10155000054908600549C1F89C01042000F004FC1D
:1015600010BD0000000C0140988121420080214202
:1015700010B500241448006820F07040124908603B
:101580000846006840F00040086001200F490860EC
:1015900000F0EAFB01200E49C1F8980100F0E4FBDD
:1015A00007E0601CC4B2FA2C03DDFFF7BBFF01208B
:1015B00010BD0648803800680028F2D10349091F91
:1015C000086000BFF4E70000000C01409C8121424C
:1015D0000080214208B50121442000F0B1F8182014
:1015E000ADF8000048208DF8030069460648FFF773
:1015F000A7FD0120ADF8000028208DF80300694602
:101600000248FFF79DFD08BD001801400008014099
:1016100008B5012148F2800000F092F84FF4807084
:10162000ADF8000000208DF8030069460248FFF77E
:1016300087FDFFF709F908BD001C014070B50024C3
:10164000002508E00620FFF711FE0444052000F005
:1016500065FB681CC5B20A2DF4DB0A20B4FBF0F46C
:10166000B4F57A6F01D94FF47A642820B4FBF0F016
:10167000C0F16400C0B270BD00BFFEE7704700005B
:1016800070B5002100230F22C47804B3154C2468E0
:1016900004F4E064C4F5E064210AC1F10403CA4023
:1016A000447804FA03F184781440214309010E4C74
:1016B0000678A155047804F01F050124AC40057894
:1016C0006D11AD0005F1E025C5F8004109E0047891
:1016D00004F01F050124AC40044D0678761145F84E
:1016E000264070BD0CED00E000E400E080E100E089
:1016F00002490143024A1160704700000000FA05E8
:101700000CED00E07047000001460020034A5068DD
:1017100020F4404008435060704700000010024031
:1017200029B1064AD2690243044BDA6104E0034A54
:10173000D2698243014BDA61704700000010024019
:1017400029B1064A92690243044B9A6104E0034AB4
:1017500092698243014B9A61704700000010024079
:1017600029B1064AD2680243044BDA6004E0034A16
:10177000D2688243014BDA607047000000100240DB
:1017800030B500210022002400232D4D6D6805F0A6
:101790000C0121B1042905D0082923D105E0294DE8
:1017A000056022E0274D05601FE0254D6D6805F4BA
:1017B0007012234D6D6805F48034022505EB9242CA
:1017C0001CB9214D554305600BE01D4D6D6805F4B6
:1017D00000351DB11C4D5543056002E0194D5543C0
:1017E000056002E0174D056000BF00BF144D6D6835
:1017F00005F0F0010909154D6B5C0568DD40456099
:101800000F4D6D6805F4E061090A104D6B5C456889
:10181000DD4085600A4D6D6805F46051C90A0B4DC5
:101820006B5C4568DD40C560054D6D6805F4404161
:10183000890B074D6B5CC568B5FBF3F5056130BDE1
:101840000010024000127A0000093D00180000203C
:1018500028000020704710B500F002F810BD00000D
:101860000CB50020019000903348006840F48030AF
:101870003149086000BF3048006800F40030009033
:101880000198401C0190009818B90198B0F5A06F1C
:10189000F1D12948006800F4003010B10120009017
:1018A00001E0002000900098012843D123480068FF
:1018B00040F01000214908600846006820F003004D
:1018C00008600846006840F0020008601A48406856
:1018D000194948600846406848600846406840F436
:1018E000806048600846406820F47C1048600846E4
:1018F000406840F4E81048600846006840F0807096
:10190000086000BF0C48006800F000700028F9D0A3
:101910000948406820F003000749486008464068CD
:1019200040F00200486000BF0348406800F00C002F
:101930000828F9D10CBD0000001002400020024030
:10194000042808D14FF0E021096941F004014FF06B
:10195000E022116107E04FF0E021096921F0040164
:101960004FF0E022116170477047000010B5134836
:10197000006840F0010011490860084640681049BD
:1019800008400E494860084600680E4908400B4967
:1019900008600846006820F4802008600846406817
:1019A00020F4FE0048604FF41F008860FFF753FFEB
:1019B0004FF000600449086010BD000000100240B4
:1019C0000000FFF8FFFFF6FE08ED00E000B585B06F
:1019D00001214FF40170FFF7B3FE4FF40040FFF711
:1019E00093FE1848FEF7A2FD00208DF80500039035
:1019F0004FF4602002900020009001208DF810002C
:101A000000208DF8040069460E48FEF7DFFD012036
:101A1000FEF776FE01210B48FEF77CFD0948FEF734
:101A200059FE00BF0748FEF7C6FD0028FAD1054859
:101A3000FEF760FE00BF0348FEF7A6FD0028FAD1BE
:101A400005B000BD0024014010B504460723012263
:101A500021460948FEF7E2FD01210748FEF73FFE57
:101A600000BF02210448FEF79DFD0028F9D002487E
:101A7000FEF794FD10BD0000002401402DE9F04167
:101A800007460C460025002608E03846FFF7DCFF35
:101A90000544052000F042F9701CC6B2A642F4DBF2
:101AA000B5FBF4F080B2BDE8F081000010B540F263
:101AB00025511D4800F04AF810B31B4800F002F908
:101AC000C4B21A48008800F40040C8B9174800881A
:101AD00000F4804060B10A2C03D000201349088034
:101AE00020E01248008840F400401049088019E0C6
:101AF0000D2C06D10D48008840F480400B49088029
:101B000010E00A480088C0F30D0009490C5407484A
:101B10000088401C0549088008460088C72801DD68
:101B20000020088010BD0000003801403400002073
:101B30003800002021B1828942F40052828104E001
:101B400082894DF6FF731A408281704770B5024654
:101B5000002400230025002040F66A16B14200D17F
:101B600000BFC1F3421501F01F03012606FA03F37B
:101B7000012D02D19689334006E0022D02D1168A4A
:101B8000334001E0968A33400C12012606FA04F431
:101B90001688344013B10CB1012000E0002070BD64
:101BA000F0B50346002400260025002040F66A1701
:101BB000B94200D100BF1846C1F3421401F01F061C
:101BC000012707FA06F5012C01D10C3004E0022CA4
:101BD00001D1103000E014301AB107682F430760BC
:101BE00002E00768AF430760F0BD00002DE9F04751
:101BF00086B005460E460024A24600BFA146002737
:101C0000B08900B100BF2F462C8A4CF6FF7004400B
:101C1000F08804432C82AC894EF6F3100440B0885F
:101C200031890843718908430443AC81AC8A4FF67B
:101C3000FF400440B0890443AC8201A8FFF7A0FD37
:101C40001F48874202D1DDF810A001E0DDF80CA0AA
:101C5000A88900F4004040B10AEBCA0000EB0A106A
:101C600031684900B0FBF1F807E00AEBCA0000EB6D
:101C70000A1031688900B0FBF1F86420B8FBF0F07D
:101C800004012009642101FB1089A88900F40040A7
:101C900040B1322000EBC900B0FBF1F000F00700CA
:101CA000044308E0322000EB09106421B0FBF1F09E
:101CB00000F00F0004432C8106B0BDE8F08700005F
:101CC0000038014001468888C0F30800704700BF13
:101CD000FEE700BF7047000010B56FF00400FFF78B
:101CE0002FFE0A4800680A49B0FBF1F00949087064
:101CF0000846007800EB4001C1EBC0104FF6FF71C1
:101D000001EAC0000449088010BD00000400002062
:101D100000127A002C0000202E0000200146114AFB
:101D200012884A434FF0E0235A6100229A611A4612
:101D3000126942F001021A6100BF4FF0E0221069FF
:101D400000F001021AB100F48032002AF5D04FF001
:101D5000E022126922F001024FF0E0231A61002212
:101D60009A6170472E0000200146114A12784A43BA
:101D70004FF0E0235A6100229A611A46126942F03C
:101D800001021A6100BF4FF0E022106900F0010269
:101D90001AB100F48032002AF5D04FF0E022126927
:101DA00022F001024FF0E0231A6100229A6170478D
:101DB0002C00002000BF054A128802F04002002AD1
:101DC000F9D0C2B2014B1B1D1A8070470038014088
:101DD0008CB000BF00BF00BF2EA103C9CDE9040134
:101DE00000BF4FF4A060FFF783FCFFF775FFFFF71C
:101DF000F1FBFFF7A4F84FF4E13000F073F8FFF7C0
:101E0000E5FDFFF705FCFEF7A4FC012004230822F2
:101E1000072100900020FEF775FE3AE0FFF740FA38
:101E2000C5B2642095FBF0F631461CA0FEF7F8F928
:101E3000FFF704FC1D490880084601881CA0FEF736
:101E4000EFF907E01E48006808B9012000E0002013
:101E50001B490860FEF766FC0028F3D115221949DA
:101E6000FEF7B8FC152206A90020FEF776FC082133
:101E700004A8FFF72DF8044614B113A0FEF7D0F91B
:101E800002A8FFF707F805461DB102A911A0FEF749
:101E9000C7F9C3E73132333435360D0AC4DAB2BF7D
:101EA000CEC2B6C8A3BA2564200D0A0002000020E5
:101EB000B9E2CFDFC7BFB6C83A202564200D0A00BB
:101EC00094812142E2280008B7A2CBCDB3C9B9A6BC
:101ED0000D0A0000BDD3CAD5B5BDCAFDBEDD3A2589
:101EE0007300000010B586B00446012144F20400DE
:101EF000FFF726FC4FF40070ADF8140003208DF8B6
:101F0000160018208DF8170005A91C48FFF718F9CE
:101F10004FF48060ADF8140004208DF8170005A977
:101F20001648FFF70DF925208DF8000003208DF8E5
:101F300001008DF8020001208DF803006846FFF7CC
:101F40009FFB01940020ADF80800ADF80A00ADF841
:101F50000C00ADF810000C20ADF80E0001A90848E7
:101F6000FFF744FE012240F225510548FFF718FE15
:101F700001210348FFF7DEFD06B010BD0008014057
:101F80000038014010B591EA030F48BF83F00043C9
:101F900000F12E83841A71EB030C05D2121943EB66
:101FA0000C03001B61EB0C01DFF824E14FEA115434
:101FB000A4EB135C1EEA430F18BF9EEA445F73D084
:101FC00023EA0E03DCF1200E21EA045143F48013CE
:101FD00032D322FA0CFE10EB0E0023FA0CFE41EB7A
:101FE0000E01CCF1200E03FA0EFE10EB0E0051F1A3
:101FF0000001B1F5801FCCF1200E32D201EB04516B
:1020000012FA0EF2BDE8104058BF7047401C38BFAE
:102010005FEA420218BF7047002814BF20F0010099
:1020200041F100014FEA410313F5001F38BF70472B
:10203000A1F1C04100F0CEBA012A43EB0302ACF19A
:10204000200CDCF11F0E32BF4FF0000E23FA0CF310
:1020500010EB030041EB0451B4EB115FD0D0A1EBC6
:10206000045101F5801149085FEA300001EB045189
:102070000ED350F1000038BF12FA0EFE08D1BDE8B1
:102080001040C9E7401C38BF5FEA4202CAD1C3E72B
:10209000BDE810404FEA410313F5001F38BF7047F9
:1020A000A1F1C04100F096BA9EEA445F08D011EA5F
:1020B0005E0FBDE8104004BF01F0004100207047F2
:1020C000BDE8104070B500F037FA00BF64FBBE3EBB
:1020D0000000E0FF2DE9C04130B4DFF8A0C23CEAC7
:1020E000111418BF3CEA131400F0EC8081EA0305D8
:1020F0001CEA111444EAD57418BF1CEA131500F049
:10210000C780A4EB05044FF0004545EAC12145EA2C
:10211000C32341EA505143EA525304F17F74994278
:1021200004F500344FEAC0204FEAC22208BF9042B3
:1021300000F09C804FEA13650FF24016765D4FEA7F
:10214000134506FB05F7C7F1807706FB07F74FEA53
:10215000D737A7FB03687642C8F58038A7FB06CEC1
:1021600038BFA8F1010807FB08E64FF0000EA6FBF8
:10217000028CE6FB03CEDCF1000CCEF1004E38BF42
:10218000AEF1010EA6FB0C584FF000074FF0000512
:10219000E6FB0E87A1FB08C6A0FB07CE16EB0E06DA
:1021A00045F10005E1FB076515F1E04E7EBFA4F5A2
:1021B00080345FEA46066D4116F1800745F100055F
:1021C0004FEA17274FEA066647EA0567A6F1DE469B
:1021D000B6F1805F4FEA15251FD9384624F0010C6F
:1021E00005EBC471BCF1FE6F01EB0C1102D8F0BC21
:1021F000BDE8008124425CBF01F5801E9EEAC47FD9
:1022000002D4F0BCBDE80081244238D4F0BCA1F176
:10221000C041BDE8004100F0DDB94FEAD22242EAF8
:1022200043524FEAD323A7FB02864FEAD02040EA6D
:10223000415007FB03661EEA0E0F4FEAD12105FB52
:10224000026658BFA6EB0056B6EB00564FEA520E98
:102250004EEAC37E18EB0E0E56EB530EBDD518EBAF
:1022600002085E417F1C55F10005B6E74FF480156A
:102270004FF000074FF000064FF00008ADE7F0BC4C
:102280004FF0000001F1C04101F00041BDE80081C4
:1022900011EA0C1F0CEA131500D00CE013EA0C1F16
:1022A00000F025804FF00000F0BC81EA030101F04E
:1022B0000041BDE80081F0BCBDE8004181EA0301B6
:1022C00000F088B9F0BCBDE8004170B500F034F909
:1022D000097EFC3E00F007B881EA03014FF00000E0
:1022E00001F00041704781EA030100F073B9F0BCCE
:1022F000BDE800414FF0000021497047FFFDFBF9A8
:10230000F7F5F4F2F0EEEDEBE9E8E6E4E3E1E0DE28
:10231000DDDBDAD8D7D5D4D3D1D0CFCDCCCBCAC89A
:10232000C7C6C5C4C2C1C0BFBEBDBCBBBAB9B8B7C1
:10233000B6B5B4B3B2B1B0AFAEADACABAAA9A8A8B4
:10234000A7A6A5A4A3A3A2A1A09F9F9E9D9C9C9B82
:102350009A9999989797969595949393929191902D
:102360008F8F8E8E8D8C8C8B8B8A898988888787BE
:102370008685858484838382828181800000FF0733
:102380000000F87F4FEA41034FEA5353A3F58063FF
:10239000D3F11E03C8BFD3F1210C0CDD4FF0004276
:1023A00042EAC12242EA505232FA03FC8CEAE17C52
:1023B000ACEBE1707047102BC4BF0020704703F5F1
:1023C000787CBCF1FF3F04D06FF0004282EA21002C
:1023D000704770B500F0B0F8499224800020704733
:1023E000F2E70000DFF848C170B51CEA111E1EBFFD
:1023F0001CEA13159EEA0C0F95EA0C0F00F06F8093
:1024000081EA030423EA4C134EEAD47E21EA4C11FC
:1024100041F4801143F48013AE44A1FB024CA0FBB5
:102420000365AEF17F7E361955EB0C05A1FB034C1D
:102430004CF10003A0FB021C16EB0C06654153F1A6
:102440000003094218BF46F0010613F4007F0BD1C8
:102450004FEA03314FEA0530340341EA155140EAAF
:1024600016506FF003020AE04FEAC3214FEAC5207D
:10247000F40241EA555140EA56506FF0020202EB75
:102480002E4201EB025585EACE710AD05FEA440C78
:1024900018BF24F0004450F1000041F1000120EA8F
:1024A000D47040F2FE7C624500D270BDA84214BFD9
:1024B0004FF080444FF04044002E08BF0024BEF18E
:1024C000806FA8BFA1F1C041BDE8704080F282805A
:1024D0004FF0000001F1C04101F0004170479EEA59
:1024E0000C0F0CEA131518BF95EA0C0F06D04FF02D
:1024F000000081EA030E0EF0004170BD00F01CF8F0
:102500008900013E00F007B800F009B84FEA430C1B
:102510005FEA5C5C08D081EA030100F05BB84FEA37
:10252000410C5FEA5C5CF6D14FF000000149704756
:102530000000FF070000F87F0EF1020E2EF0030EE0
:102540005EF8046B364205D4012A43EB030515F50A
:10255000001F12D8012841EB010C1CF5001F0CD8FC
:102560000ED14FEAD17C15F5001F0CEB4C0C0CF191
:10257000020C08BF4CEBD37C04E04FF0080C01E0E8
:102580004FEAD37C0CEB4C0526FA05F606F007065D
:10259000B6F1040C06D20EEB860CBDE870404CF090
:1025A000010C6047DFE80CF0090B02024FF000411C
:1025B0004FF00000A1F5002170BD1946104601281A
:1025C00051EB010418BFD4F5001484BF002001F0C2
:1025D000004170BD0808A0F500114FEA31017047B5
:1025E00010B591EA030F48BF83F000433FF5D2AC2A
:1025F000841A71EB030C07D212198CF0004C43EBD8
:102600000C03001B61EB0C01DFF8A4E14FEA11544D
:10261000A4EB135C1EEA430F18BF9EEA445F00F070
:10262000B08023EA6E03524221EA0451C3EB6E03E9
:1026300038BF5B1EDCF1200E25D322FA0CFE10EB16
:102640000E0043FA0CFE41EB0E01CCF1200E03FA12
:102650000EFE10EB0E0051F10001CCF1200E29D43A
:1026600012FA0EF201EB0451BDE8104058BF70475A
:10267000401C1CBFB2F1004F704700280CBF491C22
:1026800020F00100704712EB020E43EB030218BF6B
:102690004FF0010E4EEA4202ACF1200CDCF11E0EAE
:1026A00054D943FA0CFE10EB0E0051F1FF31CCF17E
:1026B0001E0ED5D50EF1010E12FA0EFE404141EB71
:1026C000010101EB445C5FEA5C5C10D910EBDE7049
:1026D00001EB045138BFBEF1004FBDE8104018BFF8
:1026E000704700280CBF491C20F00100704730D211
:1026F0004FEAD42C11F5001124F400641BD0B1FA78
:1027000081F20B3AA41AA41ED2F12003914030FAB0
:1027100003F31943904001EBCC71002C01EB045101
:10272000BDE81040A8BF704701F1C0414FF0000064
:1027300001F000417047B0FA80F310FA03F100D1C4
:1027400010BDE41A173C4805C90AE4E701EB04513F
:1027500010BD491001EB0451BDE810404FEA3000B4
:1027600002E04FF0000170474A0008BF0042F8D075
:10277000B2F5001F28BF704701F000414FF0000084
:1027800070479EEA445F07D011EA5E0FBDE8104033
:1027900004BF002100207047BDE8104070B5FFF76E
:1027A000CBFE00BF40DFF63E83F00041104670478D
:1027B0000000E0FF43004FEAD30C4FEA3C0C4340DB
:1027C0001FBF40070CF1605113F0FE4F70471CF023
:1027D000006F03D100200CF0004170470CF0004363
:1027E00043EA507010B540EACC0000F022F800BF78
:1027F000000000924FEA0001FFF7ECBE4FF00041ED
:102800004FF00000A1F5002170470000B0FA80F3FE
:1028100010FA03F2C3F19D030AD0D90501EB12208F
:10282000530638BF704700F1010008BF20F00100D7
:1028300070470EF1020E2EF0030E5EF8044B244298
:1028400004D44FEA4102B2F17F4F11D84FEA40035E
:10285000B3F17F4F0CD80ED14FEAD07CB2F17F4F4D
:102860000CEB4C0C0CF1020C08BF4CEBD17C04E0DF
:102870004FF0080C01E04FEAD17C0CEB4C0324FA3A
:1028800003F404F00704B4F1040C06D20EEB840C3C
:10289000BDE810404CF0010C6047DFE80CF0070881
:1028A00002024FF00040A0F5800010BD0846420033
:1028B00018BFD2F1807288BF00F0004010BD414CBB
:1028C00049454E54454B20454C4954452053544DA1
:1028D0003332463120444D4120B4AEBFDACAB5D1BF
:1028E000E900456C6974652053544D3332204949E1
:1028F00043205445535400001829000800000020CC
:10290000380000006C010008502900083800002041
:1029100028070000880100080000000000A24A0407
:10292000000000000000000001020304060708097F
:102930000000000001020304010203040607080965
:102940000204060800000000000000000000000073
:0400000508000131BD
:00000001FF
